{
  "contractName": "Tontine",
  "abi": [
    {
      "constant": true,
      "inputs": [],
      "name": "ERC20Interface",
      "outputs": [
        {
          "internalType": "contract ERC20",
          "name": "",
          "type": "address"
        }
      ],
      "payable": false,
      "stateMutability": "view",
      "type": "function",
      "signature": "0x1bbc4b83"
    },
    {
      "constant": true,
      "inputs": [
        {
          "internalType": "bytes32",
          "name": "",
          "type": "bytes32"
        }
      ],
      "name": "tokens",
      "outputs": [
        {
          "internalType": "address",
          "name": "",
          "type": "address"
        }
      ],
      "payable": false,
      "stateMutability": "view",
      "type": "function",
      "signature": "0x904194a3"
    },
    {
      "constant": false,
      "inputs": [
        {
          "internalType": "string",
          "name": "_ID_Tontine",
          "type": "string"
        },
        {
          "internalType": "uint256",
          "name": "NBR_P",
          "type": "uint256"
        },
        {
          "internalType": "uint256",
          "name": "Montant",
          "type": "uint256"
        },
        {
          "internalType": "uint256",
          "name": "NBR_cercle",
          "type": "uint256"
        },
        {
          "internalType": "string",
          "name": "frequence",
          "type": "string"
        }
      ],
      "name": "Creation",
      "outputs": [],
      "payable": false,
      "stateMutability": "nonpayable",
      "type": "function",
      "signature": "0xbd770b52"
    },
    {
      "constant": true,
      "inputs": [
        {
          "internalType": "string",
          "name": "_ID_Tontine",
          "type": "string"
        }
      ],
      "name": "getTontine",
      "outputs": [
        {
          "internalType": "string",
          "name": "",
          "type": "string"
        },
        {
          "internalType": "uint256",
          "name": "",
          "type": "uint256"
        },
        {
          "internalType": "uint256",
          "name": "",
          "type": "uint256"
        },
        {
          "internalType": "uint256",
          "name": "",
          "type": "uint256"
        },
        {
          "internalType": "string",
          "name": "",
          "type": "string"
        },
        {
          "internalType": "address",
          "name": "",
          "type": "address"
        },
        {
          "internalType": "uint256",
          "name": "",
          "type": "uint256"
        }
      ],
      "payable": false,
      "stateMutability": "view",
      "type": "function",
      "signature": "0x8a38ac18"
    },
    {
      "constant": true,
      "inputs": [],
      "name": "convertttt",
      "outputs": [
        {
          "internalType": "bytes32",
          "name": "result",
          "type": "bytes32"
        }
      ],
      "payable": false,
      "stateMutability": "pure",
      "type": "function",
      "signature": "0xd99a64c9"
    },
    {
      "constant": false,
      "inputs": [
        {
          "internalType": "bytes32",
          "name": "symbol_",
          "type": "bytes32"
        },
        {
          "internalType": "address",
          "name": "address_",
          "type": "address"
        }
      ],
      "name": "addNewToken",
      "outputs": [
        {
          "internalType": "bool",
          "name": "",
          "type": "bool"
        }
      ],
      "payable": false,
      "stateMutability": "nonpayable",
      "type": "function",
      "signature": "0xb082443b"
    },
    {
      "constant": false,
      "inputs": [
        {
          "internalType": "address",
          "name": "sender",
          "type": "address"
        },
        {
          "internalType": "address",
          "name": "receiver",
          "type": "address"
        },
        {
          "internalType": "uint256",
          "name": "Montant",
          "type": "uint256"
        }
      ],
      "name": "Transaction",
      "outputs": [],
      "payable": false,
      "stateMutability": "nonpayable",
      "type": "function",
      "signature": "0x7db7852b"
    },
    {
      "constant": false,
      "inputs": [
        {
          "internalType": "string",
          "name": "ID_Tontine",
          "type": "string"
        }
      ],
      "name": "retrait",
      "outputs": [],
      "payable": false,
      "stateMutability": "nonpayable",
      "type": "function",
      "signature": "0xa7ab8a2c"
    },
    {
      "constant": false,
      "inputs": [
        {
          "internalType": "string",
          "name": "ID_Tontine",
          "type": "string"
        },
        {
          "internalType": "address",
          "name": "receiver",
          "type": "address"
        }
      ],
      "name": "Virement",
      "outputs": [],
      "payable": false,
      "stateMutability": "nonpayable",
      "type": "function",
      "signature": "0x1923cc11"
    },
    {
      "constant": false,
      "inputs": [
        {
          "internalType": "string",
          "name": "ID_Tontine",
          "type": "string"
        }
      ],
      "name": "ValidTontine",
      "outputs": [
        {
          "internalType": "bool",
          "name": "",
          "type": "bool"
        }
      ],
      "payable": false,
      "stateMutability": "nonpayable",
      "type": "function",
      "signature": "0x9ac74412"
    },
    {
      "constant": false,
      "inputs": [
        {
          "internalType": "string",
          "name": "_ID_Tontine",
          "type": "string"
        },
        {
          "internalType": "uint256",
          "name": "ordre",
          "type": "uint256"
        }
      ],
      "name": "addParticipant",
      "outputs": [],
      "payable": false,
      "stateMutability": "nonpayable",
      "type": "function",
      "signature": "0x5495b410"
    }
  ],
  "bytecode": "0x608060405234801561001057600080fd5b50611944806100206000396000f3fe608060405234801561001057600080fd5b50600436106100c6576000357c010000000000000000000000000000000000000000000000000000000090048063904194a31161008e578063904194a3146105125780639ac7441214610580578063a7ab8a2c14610653578063b082443b1461070e578063bd770b5214610774578063d99a64c9146108e4576100c6565b80631923cc11146100cb5780631bbc4b83146101a65780635495b410146101f05780637db7852b146102b55780638a38ac1814610323575b600080fd5b6101a4600480360360408110156100e157600080fd5b81019080803590602001906401000000008111156100fe57600080fd5b82018360208201111561011057600080fd5b8035906020019184600183028401116401000000008311171561013257600080fd5b91908080601f016020809104026020016040519081016040528093929190818152602001838380828437600081840152601f19601f820116905080830192505050505050509192919290803573ffffffffffffffffffffffffffffffffffffffff169060200190929190505050610902565b005b6101ae6109eb565b604051808273ffffffffffffffffffffffffffffffffffffffff1673ffffffffffffffffffffffffffffffffffffffff16815260200191505060405180910390f35b6102b36004803603604081101561020657600080fd5b810190808035906020019064010000000081111561022357600080fd5b82018360208201111561023557600080fd5b8035906020019184600183028401116401000000008311171561025757600080fd5b91908080601f016020809104026020016040519081016040528093929190818152602001838380828437600081840152601f19601f82011690508083019250505050505050919291929080359060200190929190505050610a11565b005b610321600480360360608110156102cb57600080fd5b81019080803573ffffffffffffffffffffffffffffffffffffffff169060200190929190803573ffffffffffffffffffffffffffffffffffffffff16906020019092919080359060200190929190505050610c28565b005b6103dc6004803603602081101561033957600080fd5b810190808035906020019064010000000081111561035657600080fd5b82018360208201111561036857600080fd5b8035906020019184600183028401116401000000008311171561038a57600080fd5b91908080601f016020809104026020016040519081016040528093929190818152602001838380828437600081840152601f19601f820116905080830192505050505050509192919290505050610de9565b6040518080602001888152602001878152602001868152602001806020018573ffffffffffffffffffffffffffffffffffffffff1673ffffffffffffffffffffffffffffffffffffffff16815260200184815260200183810383528a818151815260200191508051906020019080838360005b8381101561046a57808201518184015260208101905061044f565b50505050905090810190601f1680156104975780820380516001836020036101000a031916815260200191505b50838103825286818151815260200191508051906020019080838360005b838110156104d05780820151818401526020810190506104b5565b50505050905090810190601f1680156104fd5780820380516001836020036101000a031916815260200191505b50995050505050505050505060405180910390f35b61053e6004803603602081101561052857600080fd5b810190808035906020019092919050505061125f565b604051808273ffffffffffffffffffffffffffffffffffffffff1673ffffffffffffffffffffffffffffffffffffffff16815260200191505060405180910390f35b6106396004803603602081101561059657600080fd5b81019080803590602001906401000000008111156105b357600080fd5b8201836020820111156105c557600080fd5b803590602001918460018302840111640100000000831117156105e757600080fd5b91908080601f016020809104026020016040519081016040528093929190818152602001838380828437600081840152601f19601f820116905080830192505050505050509192919290505050611292565b604051808215151515815260200191505060405180910390f35b61070c6004803603602081101561066957600080fd5b810190808035906020019064010000000081111561068657600080fd5b82018360208201111561069857600080fd5b803590602001918460018302840111640100000000831117156106ba57600080fd5b91908080601f016020809104026020016040519081016040528093929190818152602001838380828437600081840152601f19601f820116905080830192505050505050509192919290505050611389565b005b61075a6004803603604081101561072457600080fd5b8101908080359060200190929190803573ffffffffffffffffffffffffffffffffffffffff169060200190929190505050611403565b604051808215151515815260200191505060405180910390f35b6108e2600480360360a081101561078a57600080fd5b81019080803590602001906401000000008111156107a757600080fd5b8201836020820111156107b957600080fd5b803590602001918460018302840111640100000000831117156107db57600080fd5b91908080601f016020809104026020016040519081016040528093929190818152602001838380828437600081840152601f19601f8201169050808301925050505050505091929192908035906020019092919080359060200190929190803590602001909291908035906020019064010000000081111561085c57600080fd5b82018360208201111561086e57600080fd5b8035906020019184600183028401116401000000008311171561089057600080fd5b91908080601f016020809104026020016040519081016040528093929190818152602001838380828437600081840152601f19601f820116905080830192505050505050509192919290505050611461565b005b6108ec611823565b6040518082815260200191505060405180910390f35b6109e730826000856040518082805190602001908083835b6020831061093d578051825260208201915060208101905060208303925061091a565b6001836020036101000a0380198251168184511680821785525050505050509050019150509081526020016040518091039020600201546000866040518082805190602001908083835b602083106109aa5780518252602082019150602081019050602083039250610987565b6001836020036101000a03801982511681845116808217855250505050505090500191505090815260200160405180910390206003015402610c28565b5050565b600360009054906101000a900473ffffffffffffffffffffffffffffffffffffffff1681565b806000836040518082805190602001908083835b60208310610a485780518252602082019150602081019050602083039250610a25565b6001836020036101000a038019825116818451168082178552505050505050905001915050908152602001604051809103902060080160003373ffffffffffffffffffffffffffffffffffffffff1673ffffffffffffffffffffffffffffffffffffffff16815260200190815260200160002060010181905550336000836040518082805190602001908083835b60208310610af95780518252602082019150602081019050602083039250610ad6565b6001836020036101000a038019825116818451168082178552505050505050905001915050908152602001604051809103902060080160003373ffffffffffffffffffffffffffffffffffffffff1673ffffffffffffffffffffffffffffffffffffffff16815260200190815260200160002060000160006101000a81548173ffffffffffffffffffffffffffffffffffffffff021916908373ffffffffffffffffffffffffffffffffffffffff160217905550610c2433306000856040518082805190602001908083835b60208310610be85780518252602082019150602081019050602083039250610bc5565b6001836020036101000a038019825116818451168082178552505050505050905001915050908152602001604051809103902060030154610c28565b5050565b6000610c32611823565b905060006002600083815260200190815260200160002060009054906101000a900473ffffffffffffffffffffffffffffffffffffffff16905080600360006101000a81548173ffffffffffffffffffffffffffffffffffffffff021916908373ffffffffffffffffffffffffffffffffffffffff160217905550600360009054906101000a900473ffffffffffffffffffffffffffffffffffffffff1673ffffffffffffffffffffffffffffffffffffffff1663fd3e6a0a8686866040518463ffffffff167c0100000000000000000000000000000000000000000000000000000000028152600401808473ffffffffffffffffffffffffffffffffffffffff1673ffffffffffffffffffffffffffffffffffffffff1681526020018373ffffffffffffffffffffffffffffffffffffffff1673ffffffffffffffffffffffffffffffffffffffff1681526020018281526020019350505050602060405180830381600087803b158015610da657600080fd5b505af1158015610dba573d6000803e3d6000fd5b505050506040513d6020811015610dd057600080fd5b8101908080519060200190929190505050505050505050565b6060600080600060606000806000886040518082805190602001908083835b60208310610e2b5780518252602082019150602081019050602083039250610e08565b6001836020036101000a03801982511681845116808217855250505050505090500191505090815260200160405180910390206000016000896040518082805190602001908083835b60208310610e975780518252602082019150602081019050602083039250610e74565b6001836020036101000a03801982511681845116808217855250505050505090500191505090815260200160405180910390206002015460008a6040518082805190602001908083835b60208310610f045780518252602082019150602081019050602083039250610ee1565b6001836020036101000a03801982511681845116808217855250505050505090500191505090815260200160405180910390206003015460008b6040518082805190602001908083835b60208310610f715780518252602082019150602081019050602083039250610f4e565b6001836020036101000a03801982511681845116808217855250505050505090500191505090815260200160405180910390206004015460008c6040518082805190602001908083835b60208310610fde5780518252602082019150602081019050602083039250610fbb565b6001836020036101000a038019825116818451168082178552505050505050905001915050908152602001604051809103902060050160008d6040518082805190602001908083835b6020831061104a5780518252602082019150602081019050602083039250611027565b6001836020036101000a038019825116818451168082178552505050505050905001915050908152602001604051809103902060010160009054906101000a900473ffffffffffffffffffffffffffffffffffffffff1660008e6040518082805190602001908083835b602083106110d757805182526020820191506020810190506020830392506110b4565b6001836020036101000a038019825116818451168082178552505050505050905001915050908152602001604051809103902060060154868054600181600116156101000203166002900480601f0160208091040260200160405190810160405280929190818152602001828054600181600116156101000203166002900480156111a35780601f10611178576101008083540402835291602001916111a3565b820191906000526020600020905b81548152906001019060200180831161118657829003601f168201915b50505050509650828054600181600116156101000203166002900480601f01602080910402602001604051908101604052809291908181526020018280546001816001161561010002031660029004801561123f5780601f106112145761010080835404028352916020019161123f565b820191906000526020600020905b81548152906001019060200180831161122257829003601f168201915b505050505092509650965096509650965096509650919395979092949650565b60026020528060005260406000206000915054906101000a900473ffffffffffffffffffffffffffffffffffffffff1681565b600080826040518082805190602001908083835b602083106112c957805182526020820191506020810190506020830392506112a6565b6001836020036101000a0380198251168184511680821785525050505050509050019150509081526020016040518091039020600201546000836040518082805190602001908083835b602083106113365780518252602082019150602081019050602083039250611313565b6001836020036101000a038019825116818451168082178552505050505050905001915050908152602001604051809103902060070180549050141561137f5760019050611384565b600090505b919050565b61140033306000846040518082805190602001908083835b602083106113c457805182526020820191506020810190506020830392506113a1565b6001836020036101000a038019825116818451168082178552505050505050905001915050908152602001604051809103902060030154610c28565b50565b6000816002600085815260200190815260200160002060006101000a81548173ffffffffffffffffffffffffffffffffffffffff021916908373ffffffffffffffffffffffffffffffffffffffff1602179055506001905092915050565b846000866040518082805190602001908083835b602083106114985780518252602082019150602081019050602083039250611475565b6001836020036101000a038019825116818451168082178552505050505050905001915050908152602001604051809103902060000190805190602001906114e192919061186a565b50836000866040518082805190602001908083835b6020831061151957805182526020820191506020810190506020830392506114f6565b6001836020036101000a038019825116818451168082178552505050505050905001915050908152602001604051809103902060020181905550826000866040518082805190602001908083835b6020831061158a5780518252602082019150602081019050602083039250611567565b6001836020036101000a038019825116818451168082178552505050505050905001915050908152602001604051809103902060030181905550816000866040518082805190602001908083835b602083106115fb57805182526020820191506020810190506020830392506115d8565b6001836020036101000a038019825116818451168082178552505050505050905001915050908152602001604051809103902060040181905550806000866040518082805190602001908083835b6020831061166c5780518252602082019150602081019050602083039250611649565b6001836020036101000a038019825116818451168082178552505050505050905001915050908152602001604051809103902060050190805190602001906116b592919061186a565b50336000866040518082805190602001908083835b602083106116ed57805182526020820191506020810190506020830392506116ca565b6001836020036101000a038019825116818451168082178552505050505050905001915050908152602001604051809103902060010160006101000a81548173ffffffffffffffffffffffffffffffffffffffff021916908373ffffffffffffffffffffffffffffffffffffffff160217905550600080866040518082805190602001908083835b602083106117985780518252602082019150602081019050602083039250611775565b6001836020036101000a038019825116818451168082178552505050505050905001915050908152602001604051809103902060060181905550600185908060018154018082558091505090600182039060005260206000200160009091929091909150908051906020019061180f92919061186a565b505061181c856001610a11565b5050505050565b600060606040518060400160405280600481526020017f494d4654000000000000000000000000000000000000000000000000000000008152509050602081015191505090565b828054600181600116156101000203166002900490600052602060002090601f016020900481019282601f106118ab57805160ff19168380011785556118d9565b828001600101855582156118d9579182015b828111156118d85782518255916020019190600101906118bd565b5b5090506118e691906118ea565b5090565b61190c91905b808211156119085760008160009055506001016118f0565b5090565b9056fea265627a7a7231582048a2d72f5cdd08840ee7e602960a404f05af95ec0929b842bef561e70f43097364736f6c634300050d0032",
  "source": "pragma solidity ^0.5.13;\r\nlibrary SafeMath {\r\n\r\n \r\n\r\n  /**\r\n  * @dev Multiplies two numbers,  throws on overflow.\r\n  */\r\n  function mul(uint256 a, uint256 b) internal pure returns (uint256) {\r\n    if (a == 0) {\r\n      return 0;\r\n    }\r\n    uint256 c = a * b;\r\n    assert(c / a == b);\r\n    return c;\r\n  }\r\n  \r\n  /**\r\n  * @dev Integer division of two numbers, truncating the quotient.\r\n  */\r\n  function div(uint256 a, uint256 b) internal pure returns (uint256) {\r\n    // assert(b > 0); // Solidity automatically throws when dividing by 0\r\n    uint256 c = a / b;\r\n    // assert(a == b * c + a % b); // There is no case in which this doesn't hold\r\n    return c;\r\n  }\r\n\r\n \r\n\r\n  /**\r\n  * @dev Subtracts two numbers, throws on overflow (i.e. if subtrahend is greater than minuend).\r\n  */\r\n  function sub(uint256 a, uint256 b) internal pure returns (uint256) {\r\n    assert(b <= a);\r\n    return a - b;\r\n  }\r\n\r\n \r\n\r\n  /**\r\n  * @dev Adds two numbers, throws on overflow.\r\n  */\r\n  function add(uint256 a, uint256 b) internal pure returns (uint256) {\r\n    uint256 c = a + b;\r\n    assert(c >= a);\r\n    return c;\r\n  }\r\n}\r\n\r\n\r\ncontract ERC20Basic {\r\n  function totalSupply() public view returns (uint256);\r\n  function balanceOf(address who) public view returns (uint256);\r\n  function transfer(address to, uint256 value) public returns (bool);\r\n  event Transfer(address indexed from, address indexed to, uint256 value);\r\n}\r\n\r\n\r\n\r\ncontract ERC20 is ERC20Basic {\r\n  function allowance(address owner, address spender) public view returns (uint256);\r\n  function transferFrom(address from, address to, uint256 value) public returns (bool);\r\n  function approve(address spender, uint256 value) public returns (bool);\r\n  function transfers(address from_,address _to, uint256 _value) public returns (bool);\r\n  event Approval(address indexed owner, address indexed spender, uint256 value);\r\n}\r\n\r\n\r\n\r\n\r\n\r\ncontract Tontine {\r\n    \r\n  struct cercle_tontine \r\n  {\r\n        string ID_Tontine;\r\n        address Createur;\r\n        uint NBR_P;\r\n        uint Montant;\r\n        uint NBR_cercle;\r\n        string frequence;\r\n        uint date_creation;\r\n        address[] liste_participants;\r\n            mapping (address=> participant) participants;\r\n\r\n      \r\n  }\r\n  \r\n   struct participant \r\n   {\r\n        address participant;\r\n        uint ordre;\r\n    }\r\n    \r\n    mapping (string => cercle_tontine) cercles;\r\n    string[] liste_tontine;\r\n    \r\n    \r\n   \r\n    \r\n    function Creation (string memory _ID_Tontine, uint NBR_P, uint Montant, uint NBR_cercle, string memory frequence) public\r\n    {\r\n        cercles[_ID_Tontine].ID_Tontine=_ID_Tontine;\r\n        cercles[_ID_Tontine].NBR_P=NBR_P;\r\n        cercles[_ID_Tontine].Montant=Montant;\r\n        cercles[_ID_Tontine].NBR_cercle=NBR_cercle;\r\n        cercles[_ID_Tontine].frequence=frequence;\r\n        cercles[_ID_Tontine].Createur=msg.sender;\r\n        cercles[_ID_Tontine].date_creation=0;\r\n        liste_tontine.push(_ID_Tontine);\r\n        addParticipant(_ID_Tontine, 1);\r\n    }\r\n    function getTontine(string memory _ID_Tontine)public view returns(string memory,  uint , uint, uint , string memory, address,uint){\r\n\r\n        return(cercles[_ID_Tontine].ID_Tontine,\r\n                cercles[_ID_Tontine].NBR_P,\r\n              cercles[_ID_Tontine].Montant,\r\n             cercles[_ID_Tontine].NBR_cercle,\r\n             cercles[_ID_Tontine].frequence,\r\n             cercles[_ID_Tontine].Createur,\r\n              cercles[_ID_Tontine].date_creation\r\n             );\r\n    } \r\n    \r\n    /*function createUser(address _userAddress) public {\r\n    User storage user = users[_userAddress];\r\n    // Check that the user did not already exist:\r\n    require(!user.set);\r\n    //Store the user\r\n    users[_userAddress] = User({\r\n        id: _userId,\r\n        name: _userName,\r\n        set: true\r\n    });\r\n}\r\n    Virement (0x0, msg.sender, totalSupply);\r\n    function acceptation() public {}\r\n    */\r\n    \r\n    \r\n     function convertttt() public pure returns (bytes32 result) {\r\n    string memory testFoo = \"IMFT\";\r\n        assembly {\r\n            result := mload(add(testFoo, 32))\r\n        }\r\n    }\r\n\r\n     function addNewToken(bytes32 symbol_, address address_) public returns (bool) {\r\n  tokens[symbol_] = address_;\r\n\r\n  return true;\r\n }\r\n    \r\n    \r\n    mapping(bytes32 => address) public tokens;\r\n   ERC20 public ERC20Interface;\r\n    function Transaction( address sender, address receiver, uint Montant )public \r\n    { bytes32 symbol_ = convertttt();\r\n               address contract_ = tokens[symbol_];\r\n        ERC20Interface = ERC20(contract_);\r\n        ERC20Interface.transfers(sender, receiver, Montant);\r\n    } \r\n    \r\n    \r\n     function retrait (string memory ID_Tontine ) public\r\n     {\r\n        Transaction(msg.sender, address(this),  cercles[ID_Tontine].Montant); \r\n     }\r\n    \r\n    /*address(this) adresse de ce contrat*/\r\n    \r\n    \r\n    function Virement(string memory ID_Tontine ,address receiver)public\r\n  {\r\n     Transaction(address (this),receiver,cercles[ID_Tontine].Montant*cercles[ID_Tontine].NBR_P);\r\n  }\r\n  \r\n  \r\n  function ValidTontine (string memory ID_Tontine) public returns (bool){\r\n        if (cercles[ID_Tontine].liste_participants.length == cercles[ID_Tontine].NBR_P) {\r\n            return true;\r\n        }\r\n        else {\r\n            return false;\r\n        }\r\n  }\r\n    \r\n     function addParticipant(string memory _ID_Tontine,uint ordre) public \r\n    {\r\n     cercles[_ID_Tontine].participants[msg.sender].ordre=ordre;\r\n    cercles[_ID_Tontine].participants[msg.sender].participant=msg.sender;\r\n    Transaction(msg.sender,address(this),cercles[_ID_Tontine].Montant);\r\n    }\r\n  }",
  "sourcePath": "C:/Users/nihel/Desktop/PDS/Nouveau dossier/contracts/tontine.sol",
  "compiler": {
    "name": "solc",
    "version": "0.5.13+commit.5b0b510c.Emscripten.clang"
  },
  "schemaVersion": "3.0.2",
  "updatedAt": "2020-01-22T09:26:41.483Z",
  "devdoc": {
    "methods": {}
  },
  "userdoc": {
    "methods": {}
  }
}